:02000000CA290B
:10000800FF00030E8301D6000A08D7008A018B1C63
:1000180024288B10061C2428861B192886100611F4
:1000280086150616861206132128861F212886148F
:1000380006118611061286120617870188010E28F6
:0E00480057088A00560E8300FF0E7F0E090037
:1000560083120313581831288610322886145A182A
:1000660036280611372806155C183B2886113C28C9
:0400760086150800E3
:0E007A008312031355088A0054088200080000
:100088008312031358184A2806124B2806165A18C2
:100098004F288612502886165C18542806135528AF
:0400A800061708002F
:1000AC0083120313D801D901DA01DB010130DC0022
:1000BC000030DD002B200130D8000030D900DA01EF
:1000CC00DB01DC01DD0144201430A0000030A10074
:1000DC001730A2000030A3008030F00080302106E1
:1000EC007002031D7B282008003C0318AC28200854
:1000FC00F0002108F100F00DF10D70107008243E95
:10010C008400000887002208F0002308F100F00D9D
:10011C00F10D70107008243E8400000888000B302C
:10012C00FB002630FC005D30FD00FD0B9B28FC0B1A
:10013C009B28FB0B9B28000000000130A002031C35
:0E014C00A1030130A202031CA30372280800C5
:10015A0083120313D801D9010130DA000030DB0021
:10016A00DC01DD012B200130D8000030D900DA0192
:10017A00DB01DC01DD0144200330A0000030A100D6
:10018A000330A2000030A3008030F0008030210646
:10019A007002031DD2282008003C031803292008F6
:1001AA00F0002108F100F00DF10D70107008243EE6
:1001BA008400000887002208F0002308F100F00DEF
:1001CA00F10D70107008243E8400000888000B307E
:1001DA00FB002630FC005D30FD00FD0BF228FC0B15
:1001EA00F228FB0BF228000000000130A002031CD9
:0E01FA00A1030130A202031CA303C9280800C0
:100208003D208A110A128000840AD40A0319D50AEB
:08021800F003031D0429080096
:10022000013083120313D8000030D900DA01DB015A
:10023000DC01DD012B20D801D901DA01DB0101301D
:10024000DC000030DD0044200F30A0000030A100B1
:100250000C30A2000030A3008030F0008030230674
:100260007002031D35292208003C03186629200866
:10027000F0002108F100F00DF10D70107008243E1F
:100280008400000887002208F0002308F100F00D28
:10029000F10D70107008243E8400000888000B30B7
:1002A000FB002630FC005D30FD00FD0B5529FC0BEA
:1002B0005529FB0B5529000000000130A002031C4A
:0E02C000A1030130A202031CA3032C29080095
:1002CE00013083120313D8000030D900DA01DB01AC
:1002DE00DC01DD012B20D801D9010130DA0000301C
:1002EE00DB00DC01DD0144200330A0000030A10062
:1002FE000330A2000030A3008030F00080302306CF
:10030E007002031D8C292208003C0318BD29200809
:10031E00F0002108F100F00DF10D70107008243E70
:10032E008400000887002208F0002308F100F00D79
:10033E00F10D70107008243E8400000888000B3008
:10034E00FB002630FC005D30FD00FD0BAC29FC0BE4
:10035E00AC29FB0BAC29000000000130A002031CED
:0E036E00A1030130A202031CA303832908008F
:10037C008316031386018701880107309F0006143A
:08038C008B170B160117080086
:100394000C22BE215620AD2010216721CC29D12961
:1004180020308400343083120313F000D730D40026
:080428000130D5000421080099
:0403AE0000340034E3
:0403B20000340034DF
:1003B6000034003401340034023400340334003491
:1003C6000434003405340034063400340734003471
:1003D6000834003409340034103400341134003445
:1003E6001234003413340034143400341534003419
:1003F60016340034173400341834003419340034F9
:1004060020340034213400342234003423340034C0
:02400E004A2F37
:00000001FF
